{
    "abi": [
        {
            "type": "constructor",
            "inputs": [
                {
                    "name": "_goal",
                    "type": "uint256",
                    "internalType": "uint256"
                }
            ],
            "stateMutability": "nonpayable"
        },
        {
            "type": "fallback",
            "stateMutability": "payable"
        },
        {
            "type": "receive",
            "stateMutability": "payable"
        },
        {
            "type": "function",
            "name": "balance",
            "inputs": [],
            "outputs": [
                {
                    "name": "",
                    "type": "uint256",
                    "internalType": "uint256"
                }
            ],
            "stateMutability": "view"
        },
        {
            "type": "function",
            "name": "donate",
            "inputs": [],
            "outputs": [],
            "stateMutability": "payable"
        },
        {
            "type": "function",
            "name": "finalMilestone",
            "inputs": [],
            "outputs": [
                {
                    "name": "",
                    "type": "uint256",
                    "internalType": "uint256"
                }
            ],
            "stateMutability": "view"
        },
        {
            "type": "function",
            "name": "getGoalAchieved",
            "inputs": [
                {
                    "name": "index",
                    "type": "uint8",
                    "internalType": "uint8"
                }
            ],
            "outputs": [
                {
                    "name": "",
                    "type": "bool",
                    "internalType": "bool"
                }
            ],
            "stateMutability": "view"
        },
        {
            "type": "function",
            "name": "milestones",
            "inputs": [
                {
                    "name": "",
                    "type": "uint256",
                    "internalType": "uint256"
                }
            ],
            "outputs": [
                {
                    "name": "value",
                    "type": "uint256",
                    "internalType": "uint256"
                },
                {
                    "name": "goalAchieved",
                    "type": "bool",
                    "internalType": "bool"
                }
            ],
            "stateMutability": "view"
        },
        {
            "type": "function",
            "name": "owner",
            "inputs": [],
            "outputs": [
                {
                    "name": "",
                    "type": "address",
                    "internalType": "address"
                }
            ],
            "stateMutability": "view"
        },
        {
            "type": "error",
            "name": "ContractDisabled",
            "inputs": []
        }
    ],
    "bytecode": {
        "object": "0x608060405234801561001057600080fd5b5060405161064638038061064683398101604081905261002f916101cd565b600080546001600160a01b031916331790556040805180820190915260039080606461005c85600a6101e6565b6100669190610211565b8152600060209182018190528354600180820186559482529082902083516002909202019081559101519101805460ff1916911515919091179055604080518082019091526003908060646100bc8560196101e6565b6100c69190610211565b8152600060209182018190528354600180820186559482529082902083516002909202019081559101519101805460ff19169115159190911790556040805180820190915260039080606461011c8560236101e6565b6101269190610211565b8152600060209182018190528354600180820186559482529082902083516002909202019081559101519101805460ff19169115159190911790556040805180820190915260039080606461017c85601e6101e6565b6101869190610211565b8152600060209182018190528354600180820186559482529082902083516002928302909101908155929091015191909201805460ff191691151591909117905555610233565b6000602082840312156101df57600080fd5b5051919050565b808202811582820484141761020b57634e487b7160e01b600052601160045260246000fd5b92915050565b60008261022e57634e487b7160e01b600052601260045260246000fd5b500490565b610404806102426000396000f3fe6080604052600436106100595760003560e01c8063587585a4146100705780638da5cb5b146100a5578063a89e82bf146100dd578063b69ef8a814610101578063e89e4ed614610117578063ed88c68e1461006857610068565b366100685761006661014c565b005b61006661014c565b34801561007c57600080fd5b5061009061008b366004610327565b6102c1565b60405190151581526020015b60405180910390f35b3480156100b157600080fd5b506000546100c5906001600160a01b031681565b6040516001600160a01b03909116815260200161009c565b3480156100e957600080fd5b506100f360025481565b60405190815260200161009c565b34801561010d57600080fd5b506100f360015481565b34801561012357600080fd5b50610137610132366004610351565b6102f6565b6040805192835290151560208301520161009c565b61015660036102c1565b15610174576040516303b14e6560e51b815260040160405180910390fd5b34600160008282546101869190610380565b90915550600090505b60035460ff821610156102ac576101a5816102c1565b6102af5760038160ff16815481106101bf576101bf610399565b90600052602060002090600202016000015447106102ac57600160038260ff16815481106101ef576101ef610399565b60009182526020822060029190910201600101805460ff19169215159290921790915580546001600160a01b031660ff83166003146102555760038360ff168154811061023e5761023e610399565b906000526020600020906002020160000154610257565b475b604051600081818185875af1925050503d8060008114610293576040519150601f19603f3d011682016040523d82523d6000602084013e610298565b606091505b50509050806102a657600080fd5b506102af565b50565b806102b9816103af565b91505061018f565b600060038260ff16815481106102d9576102d9610399565b600091825260209091206001600290920201015460ff1692915050565b6003818154811061030657600080fd5b60009182526020909120600290910201805460019091015490915060ff1682565b60006020828403121561033957600080fd5b813560ff8116811461034a57600080fd5b9392505050565b60006020828403121561036357600080fd5b5035919050565b634e487b7160e01b600052601160045260246000fd5b808201808211156103935761039361036a565b92915050565b634e487b7160e01b600052603260045260246000fd5b600060ff821660ff81036103c5576103c561036a565b6001019291505056fea264697066735822122057971050bb20040aba6a631d3cb1d106c7c8e13553dec2ae5bcafdfb2accd2b564736f6c63430008120033",
        "linkReferences": {}
    },
    "methodIdentifiers": {
        "balance()": "b69ef8a8",
        "donate()": "ed88c68e",
        "finalMilestone()": "a89e82bf",
        "getGoalAchieved(uint8)": "587585a4",
        "milestones(uint256)": "e89e4ed6",
        "owner()": "8da5cb5b"
    },
    "id": 21
}