{"abi":[{"type":"constructor","inputs":[{"name":"_goal","type":"uint256","internalType":"uint256"},{"name":"_startDate","type":"uint256","internalType":"uint256"},{"name":"_endDate","type":"uint256","internalType":"uint256"}],"stateMutability":"nonpayable"},{"type":"fallback","stateMutability":"payable"},{"type":"receive","stateMutability":"payable"},{"type":"function","name":"balance","inputs":[],"outputs":[{"name":"","type":"uint256","internalType":"uint256"}],"stateMutability":"view"},{"type":"function","name":"donate","inputs":[],"outputs":[],"stateMutability":"payable"},{"type":"function","name":"donationHistory","inputs":[{"name":"","type":"address","internalType":"address"}],"outputs":[{"name":"","type":"uint256","internalType":"uint256"}],"stateMutability":"view"},{"type":"function","name":"donors","inputs":[{"name":"","type":"uint256","internalType":"uint256"}],"outputs":[{"name":"","type":"address","internalType":"address"}],"stateMutability":"view"},{"type":"function","name":"finalMilestone","inputs":[],"outputs":[{"name":"","type":"uint256","internalType":"uint256"}],"stateMutability":"view"},{"type":"function","name":"getGoalAchieved","inputs":[{"name":"index","type":"uint8","internalType":"uint8"}],"outputs":[{"name":"","type":"bool","internalType":"bool"}],"stateMutability":"view"},{"type":"function","name":"milestones","inputs":[{"name":"","type":"uint256","internalType":"uint256"}],"outputs":[{"name":"value","type":"uint256","internalType":"uint256"},{"name":"goalAchieved","type":"bool","internalType":"bool"}],"stateMutability":"view"},{"type":"function","name":"owner","inputs":[],"outputs":[{"name":"","type":"address","internalType":"address"}],"stateMutability":"view"},{"type":"function","name":"refund","inputs":[],"outputs":[],"stateMutability":"nonpayable"},{"type":"error","name":"ContractDisabled","inputs":[]},{"type":"error","name":"DateOutOfRange","inputs":[]},{"type":"error","name":"OnlyOwnerCaller","inputs":[]}],"bytecode":{"object":"0x6101006040526001805460ff19168117905534801561001d57600080fd5b50604051610a57380380610a5783398101604081905261003c916101fd565b33608052600460205260647f17ef568e3e12ab5b9c7254a8d58478811de00f9e6eb34345acd53bf8fd09d3ec819055605a7fabd6e7cb50984ff9c2f3e18a2660c3353dadf4e3291deeb275dae2cd1e44fe055560417f91da3fd0782e51c6b3986e9e672fd566868e71f3dbc2d6c2cd6fbb3e361af2a7556003600052601e7f2e174c10e159ea99b867ce3205125c24a42d128804e4070ed6fcc8cc98166aa055604080518082019091529081906100f486600a61022b565b6100fe9190610256565b81526000602091820152815160055501516006805460ff19169115159190911790556040805180820190915280606461013886601961022b565b6101429190610256565b81526000602091820152815160075501516008805460ff19169115159190911790556040805180820190915280606461017c86602361022b565b6101869190610256565b8152600060209182015281516009550151600a805460ff1916911515919091179055604080518082019091528060646101c086601e61022b565b6101ca9190610256565b815260006020918201528151600b550151600c805460ff191691151591909117905560a09290925260c05260e052610278565b60008060006060848603121561021257600080fd5b8351925060208401519150604084015190509250925092565b808202811582820484141761025057634e487b7160e01b600052601160045260246000fd5b92915050565b60008261027357634e487b7160e01b600052601260045260246000fd5b500490565b60805160a05160c05160e0516107986102bf600039600061043601526000610249015260006101a4015260008181610135015281816102ff01526104e801526107986000f3fe60806040526004361061008a5760003560e01c806391f2b0ad1161005957806391f2b0ad14610157578063a89e82bf14610192578063b69ef8a8146101c6578063e89e4ed6146101dc578063ed88c68e1461009957610099565b80634abfa163146100a1578063587585a4146100de578063590e1ae31461010e5780638da5cb5b1461012357610099565b3661009957610097610211565b005b610097610211565b3480156100ad57600080fd5b506100c16100bc366004610640565b610466565b6040516001600160a01b0390911681526020015b60405180910390f35b3480156100ea57600080fd5b506100fe6100f9366004610659565b610490565b60405190151581526020016100d5565b34801561011a57600080fd5b506100976104b9565b34801561012f57600080fd5b506100c17f000000000000000000000000000000000000000000000000000000000000000081565b34801561016357600080fd5b50610184610172366004610683565b60036020526000908152604090205481565b6040519081526020016100d5565b34801561019e57600080fd5b506101847f000000000000000000000000000000000000000000000000000000000000000081565b3480156101d257600080fd5b5061018460005481565b3480156101e857600080fd5b506101fc6101f7366004610640565b61061b565b604080519283529015156020830152016100d5565b61021b6003610490565b80610229575060015460ff16155b15610247576040516303b14e6560e51b815260040160405180910390fd5b7f0000000000000000000000000000000000000000000000000000000000000000421015610288576040516314353edd60e01b815260040160405180910390fd5b60005b60048160ff1610156103ba576102a081610490565b6103a85760058160ff16600481106102ba576102ba6106ac565b600202015447106103a857600160058260ff16600481106102dd576102dd6106ac565b6002020160010160006101000a81548160ff02191690831515021790555060007f00000000000000000000000000000000000000000000000000000000000000006001600160a01b0316600360ff168360ff16146103555760058360ff166004811061034b5761034b6106ac565b6002020154610357565b475b604051600081818185875af1925050503d8060008114610393576040519150601f19603f3d011682016040523d82523d6000602084013e610398565b606091505b50509050806103a657600080fd5b505b806103b2816106d8565b91505061028b565b50346000808282546103cc91906106f7565b909155505060028054600181019091557f405787fa12a823e0f2b7631cc41b3ba8828b3321ca811111fa75cd3aa3bb5ace0180546001600160a01b031916339081179091556000908152600360205260408120805434929061042f9084906106f7565b90915550507f0000000000000000000000000000000000000000000000000000000000000000421115610464576104646104b9565b565b6002818154811061047657600080fd5b6000918252602090912001546001600160a01b0316905081565b600060058260ff16600481106104a8576104a86106ac565b600202016001015460ff1692915050565b60015460ff166104dc576040516303b14e6560e51b815260040160405180910390fd5b6001805460ff191690557f00000000000000000000000000000000000000000000000000000000000000006001600160a01b0316331461052f576040516301fc6cb760e31b815260040160405180910390fd5b4760005b6002548110156106175760008054836003600060028681548110610559576105596106ac565b60009182526020808320909101546001600160a01b031683528201929092526040019020546105889190610710565b6105929190610727565b9050600282815481106105a7576105a76106ac565b60009182526020822001546040516001600160a01b039091169183919081818185875af1925050503d80600081146105fb576040519150601f19603f3d011682016040523d82523d6000602084013e610600565b606091505b50505050808061060f90610749565b915050610533565b5050565b6005816004811061062b57600080fd5b60020201805460019091015490915060ff1682565b60006020828403121561065257600080fd5b5035919050565b60006020828403121561066b57600080fd5b813560ff8116811461067c57600080fd5b9392505050565b60006020828403121561069557600080fd5b81356001600160a01b038116811461067c57600080fd5b634e487b7160e01b600052603260045260246000fd5b634e487b7160e01b600052601160045260246000fd5b600060ff821660ff81036106ee576106ee6106c2565b60010192915050565b8082018082111561070a5761070a6106c2565b92915050565b808202811582820484141761070a5761070a6106c2565b60008261074457634e487b7160e01b600052601260045260246000fd5b500490565b60006001820161075b5761075b6106c2565b506001019056fea26469706673582212205889dcd46a39bcd68194de752fb7f254032037e260476569a6dc5c0bb1fa67d764736f6c63430008120033","linkReferences":{}},"methodIdentifiers":{"balance()":"b69ef8a8","donate()":"ed88c68e","donationHistory(address)":"91f2b0ad","donors(uint256)":"4abfa163","finalMilestone()":"a89e82bf","getGoalAchieved(uint8)":"587585a4","milestones(uint256)":"e89e4ed6","owner()":"8da5cb5b","refund()":"590e1ae3"},"id":21}