{"abi":[{"type":"constructor","inputs":[{"name":"_goal","type":"uint256","internalType":"uint256"},{"name":"_startDate","type":"uint256","internalType":"uint256"},{"name":"_endDate","type":"uint256","internalType":"uint256"}],"stateMutability":"nonpayable"},{"type":"fallback","stateMutability":"payable"},{"type":"receive","stateMutability":"payable"},{"type":"function","name":"balance","inputs":[],"outputs":[{"name":"","type":"uint256","internalType":"uint256"}],"stateMutability":"view"},{"type":"function","name":"donate","inputs":[],"outputs":[],"stateMutability":"payable"},{"type":"function","name":"donationHistory","inputs":[{"name":"","type":"address","internalType":"address"}],"outputs":[{"name":"","type":"uint256","internalType":"uint256"}],"stateMutability":"view"},{"type":"function","name":"donors","inputs":[{"name":"","type":"uint256","internalType":"uint256"}],"outputs":[{"name":"","type":"address","internalType":"address"}],"stateMutability":"view"},{"type":"function","name":"endDate","inputs":[],"outputs":[{"name":"","type":"uint256","internalType":"uint256"}],"stateMutability":"view"},{"type":"function","name":"finalMilestone","inputs":[],"outputs":[{"name":"","type":"uint256","internalType":"uint256"}],"stateMutability":"view"},{"type":"function","name":"getGoalAchieved","inputs":[{"name":"index","type":"uint8","internalType":"uint8"}],"outputs":[{"name":"","type":"bool","internalType":"bool"}],"stateMutability":"view"},{"type":"function","name":"milestones","inputs":[{"name":"","type":"uint256","internalType":"uint256"}],"outputs":[{"name":"value","type":"uint256","internalType":"uint256"},{"name":"goalAchieved","type":"bool","internalType":"bool"}],"stateMutability":"view"},{"type":"function","name":"owner","inputs":[],"outputs":[{"name":"","type":"address","internalType":"address"}],"stateMutability":"view"},{"type":"function","name":"refund","inputs":[],"outputs":[],"stateMutability":"nonpayable"},{"type":"function","name":"startDate","inputs":[],"outputs":[{"name":"","type":"uint256","internalType":"uint256"}],"stateMutability":"view"},{"type":"error","name":"ContractDisabled","inputs":[{"name":"","type":"string","internalType":"string"}]},{"type":"error","name":"DateOutOfRange","inputs":[]},{"type":"error","name":"OnlyOwnerCaller","inputs":[{"name":"","type":"string","internalType":"string"}]}],"bytecode":{"object":"0x6101006040526001805460ff19168117905534801561001d57600080fd5b50604051610b46380380610b4683398101604081905261003c916101fd565b33608052600460205260647f17ef568e3e12ab5b9c7254a8d58478811de00f9e6eb34345acd53bf8fd09d3ec819055605a7fabd6e7cb50984ff9c2f3e18a2660c3353dadf4e3291deeb275dae2cd1e44fe055560417f91da3fd0782e51c6b3986e9e672fd566868e71f3dbc2d6c2cd6fbb3e361af2a7556003600052601e7f2e174c10e159ea99b867ce3205125c24a42d128804e4070ed6fcc8cc98166aa055604080518082019091529081906100f486600a61022b565b6100fe9190610256565b81526000602091820152815160055501516006805460ff19169115159190911790556040805180820190915280606461013886601961022b565b6101429190610256565b81526000602091820152815160075501516008805460ff19169115159190911790556040805180820190915280606461017c86602361022b565b6101869190610256565b8152600060209182015281516009550151600a805460ff1916911515919091179055604080518082019091528060646101c086601e61022b565b6101ca9190610256565b815260006020918201528151600b550151600c805460ff191691151591909117905560a09290925260c05260e052610278565b60008060006060848603121561021257600080fd5b8351925060208401519150604084015190509250925092565b808202811582820484141761025057634e487b7160e01b600052601160045260246000fd5b92915050565b60008261027357634e487b7160e01b600052601260045260246000fd5b500490565b60805160a05160c05160e05161087a6102cc6000396000818161023801526104d601526000818160c901526102e9015260006101ee01526000818161018d0152818161039f01526105a5015261087a6000f3fe6080604052600436106100a05760003560e01c806391f2b0ad1161006457806391f2b0ad146101af578063a89e82bf146101dc578063b69ef8a814610210578063c24a0f8b14610226578063e89e4ed61461025a578063ed88c68e146100af576100af565b80630b97bc86146100b75780634abfa163146100fe578063587585a414610136578063590e1ae3146101665780638da5cb5b1461017b576100af565b366100af576100ad61028f565b005b6100ad61028f565b3480156100c357600080fd5b506100eb7f000000000000000000000000000000000000000000000000000000000000000081565b6040519081526020015b60405180910390f35b34801561010a57600080fd5b5061011e610119366004610722565b610506565b6040516001600160a01b0390911681526020016100f5565b34801561014257600080fd5b5061015661015136600461073b565b610530565b60405190151581526020016100f5565b34801561017257600080fd5b506100ad610559565b34801561018757600080fd5b5061011e7f000000000000000000000000000000000000000000000000000000000000000081565b3480156101bb57600080fd5b506100eb6101ca366004610765565b60036020526000908152604090205481565b3480156101e857600080fd5b506100eb7f000000000000000000000000000000000000000000000000000000000000000081565b34801561021c57600080fd5b506100eb60005481565b34801561023257600080fd5b506100eb7f000000000000000000000000000000000000000000000000000000000000000081565b34801561026657600080fd5b5061027a610275366004610722565b6106fd565b604080519283529015156020830152016100f5565b6102996003610530565b806102a7575060015460ff16155b156102e75760405163569adddf60e01b815260206004820152600a6024820152694465736174697661646f60b01b60448201526064015b60405180910390fd5b7f0000000000000000000000000000000000000000000000000000000000000000421015610328576040516314353edd60e01b815260040160405180910390fd5b60005b60048160ff16101561045a5761034081610530565b6104485760058160ff166004811061035a5761035a61078e565b6002020154471061044857600160058260ff166004811061037d5761037d61078e565b6002020160010160006101000a81548160ff02191690831515021790555060007f00000000000000000000000000000000000000000000000000000000000000006001600160a01b0316600360ff168360ff16146103f55760058360ff16600481106103eb576103eb61078e565b60020201546103f7565b475b604051600081818185875af1925050503d8060008114610433576040519150601f19603f3d011682016040523d82523d6000602084013e610438565b606091505b505090508061044657600080fd5b505b80610452816107ba565b91505061032b565b503460008082825461046c91906107d9565b909155505060028054600181019091557f405787fa12a823e0f2b7631cc41b3ba8828b3321ca811111fa75cd3aa3bb5ace0180546001600160a01b03191633908117909155600090815260036020526040812080543492906104cf9084906107d9565b90915550507f000000000000000000000000000000000000000000000000000000000000000042111561050457610504610559565b565b6002818154811061051657600080fd5b6000918252602090912001546001600160a01b0316905081565b600060058260ff16600481106105485761054861078e565b600202016001015460ff1692915050565b60015460ff166105995760405163569adddf60e01b815260206004820152600a6024820152694465736174697661646f60b01b60448201526064016102de565b6001805460ff191690557f00000000000000000000000000000000000000000000000000000000000000006001600160a01b03163314610611576040516309e3374b60e01b81526020600482015260126024820152713b37b1b2903730b7903290379037bbb732b960711b60448201526064016102de565b4760005b6002548110156106f9576000805483600360006002868154811061063b5761063b61078e565b60009182526020808320909101546001600160a01b0316835282019290925260400190205461066a91906107f2565b6106749190610809565b9050600282815481106106895761068961078e565b60009182526020822001546040516001600160a01b039091169183919081818185875af1925050503d80600081146106dd576040519150601f19603f3d011682016040523d82523d6000602084013e6106e2565b606091505b5050505080806106f19061082b565b915050610615565b5050565b6005816004811061070d57600080fd5b60020201805460019091015490915060ff1682565b60006020828403121561073457600080fd5b5035919050565b60006020828403121561074d57600080fd5b813560ff8116811461075e57600080fd5b9392505050565b60006020828403121561077757600080fd5b81356001600160a01b038116811461075e57600080fd5b634e487b7160e01b600052603260045260246000fd5b634e487b7160e01b600052601160045260246000fd5b600060ff821660ff81036107d0576107d06107a4565b60010192915050565b808201808211156107ec576107ec6107a4565b92915050565b80820281158282048414176107ec576107ec6107a4565b60008261082657634e487b7160e01b600052601260045260246000fd5b500490565b60006001820161083d5761083d6107a4565b506001019056fea264697066735822122077c4763a3c59b8000487aca0f165cfdd43bfe6d68330ee36b63443bed73194a364736f6c63430008120033","linkReferences":{}},"methodIdentifiers":{"balance()":"b69ef8a8","donate()":"ed88c68e","donationHistory(address)":"91f2b0ad","donors(uint256)":"4abfa163","endDate()":"c24a0f8b","finalMilestone()":"a89e82bf","getGoalAchieved(uint8)":"587585a4","milestones(uint256)":"e89e4ed6","owner()":"8da5cb5b","refund()":"590e1ae3","startDate()":"0b97bc86"},"id":21}