{"abi":[{"type":"constructor","inputs":[{"name":"_goal","type":"uint256","internalType":"uint256"},{"name":"_startDate","type":"uint256","internalType":"uint256"},{"name":"_endDate","type":"uint256","internalType":"uint256"}],"stateMutability":"nonpayable"},{"type":"fallback","stateMutability":"payable"},{"type":"receive","stateMutability":"payable"},{"type":"function","name":"balance","inputs":[],"outputs":[{"name":"","type":"uint256","internalType":"uint256"}],"stateMutability":"view"},{"type":"function","name":"donate","inputs":[],"outputs":[],"stateMutability":"payable"},{"type":"function","name":"donationHistory","inputs":[{"name":"","type":"address","internalType":"address"}],"outputs":[{"name":"","type":"uint256","internalType":"uint256"}],"stateMutability":"view"},{"type":"function","name":"donors","inputs":[{"name":"","type":"uint256","internalType":"uint256"}],"outputs":[{"name":"","type":"address","internalType":"address"}],"stateMutability":"view"},{"type":"function","name":"finalMilestone","inputs":[],"outputs":[{"name":"","type":"uint256","internalType":"uint256"}],"stateMutability":"view"},{"type":"function","name":"getGoalAchieved","inputs":[{"name":"index","type":"uint8","internalType":"uint8"}],"outputs":[{"name":"","type":"bool","internalType":"bool"}],"stateMutability":"view"},{"type":"function","name":"milestones","inputs":[{"name":"","type":"uint256","internalType":"uint256"}],"outputs":[{"name":"value","type":"uint256","internalType":"uint256"},{"name":"goalAchieved","type":"bool","internalType":"bool"}],"stateMutability":"view"},{"type":"function","name":"owner","inputs":[],"outputs":[{"name":"","type":"address","internalType":"address"}],"stateMutability":"view"},{"type":"function","name":"refund","inputs":[],"outputs":[],"stateMutability":"nonpayable"},{"type":"error","name":"ContractDisabled","inputs":[]},{"type":"error","name":"DateOutOfRange","inputs":[]},{"type":"error","name":"OnlyOwnerCaller","inputs":[]}],"bytecode":{"object":"0x608060405234801561001057600080fd5b506040516108ed3803806108ed83398101604081905261002f916101d6565b600080546001600160a01b031916331790556040805180820190915260079080606461005c87600a610204565b610066919061022f565b8152600060209182018190528354600180820186559482529082902083516002909202019081559101519101805460ff1916911515919091179055604080518082019091526007908060646100bc876019610204565b6100c6919061022f565b8152600060209182018190528354600180820186559482529082902083516002909202019081559101519101805460ff19169115159190911790556040805180820190915260079080606461011c876023610204565b610126919061022f565b8152600060209182018190528354600180820186559482529082902083516002909202019081559101519101805460ff19169115159190911790556040805180820190915260079080606461017c87601e610204565b610186919061022f565b8152600060209182018190528354600180820186559482529082902083516002928302909101908155929091015191909201805460ff191691151591909117905592909255600555600655610251565b6000806000606084860312156101eb57600080fd5b8351925060208401519150604084015190509250925092565b808202811582820484141761022957634e487b7160e01b600052601160045260246000fd5b92915050565b60008261024c57634e487b7160e01b600052601260045260246000fd5b500490565b61068d806102606000396000f3fe60806040526004361061008a5760003560e01c806391f2b0ad1161005957806391f2b0ad14610143578063a89e82bf1461017e578063b69ef8a814610194578063e89e4ed6146101aa578063ed88c68e1461009957610099565b80634abfa163146100a1578063587585a4146100de578063590e1ae31461010e5780638da5cb5b1461012357610099565b36610099576100976101df565b005b6100976101df565b3480156100ad57600080fd5b506100c16100bc36600461056e565b6103e1565b6040516001600160a01b0390911681526020015b60405180910390f35b3480156100ea57600080fd5b506100fe6100f9366004610587565b61040b565b60405190151581526020016100d5565b34801561011a57600080fd5b50610097610440565b34801561012f57600080fd5b506000546100c1906001600160a01b031681565b34801561014f57600080fd5b5061017061015e3660046105b1565b60046020526000908152604090205481565b6040519081526020016100d5565b34801561018a57600080fd5b5061017060025481565b3480156101a057600080fd5b5061017060015481565b3480156101b657600080fd5b506101ca6101c536600461056e565b61053d565b604080519283529015156020830152016100d5565b6101e9600361040b565b15610207576040516303b14e6560e51b815260040160405180910390fd5b600654421180610218575060055442105b15610236576040516314353edd60e01b815260040160405180910390fd5b60005b60075460ff821610156103645761024f8161040b565b6103525760078160ff1681548110610269576102696105da565b906000526020600020906002020160000154471061035257600160078260ff1681548110610299576102996105da565b60009182526020822060029190910201600101805460ff19169215159290921790915580546001600160a01b031660ff83166003146102ff5760078360ff16815481106102e8576102e86105da565b906000526020600020906002020160000154610301565b475b604051600081818185875af1925050503d806000811461033d576040519150601f19603f3d011682016040523d82523d6000602084013e610342565b606091505b505090508061035057600080fd5b505b8061035c81610606565b915050610239565b5034600160008282546103779190610625565b909155505060038054600181019091557fc2575a0e9e593c00f959f8c92f12db2869c3395a3b0502d05e2516446f71f85b0180546001600160a01b03191633908117909155600090815260046020526040812080543492906103da908490610625565b9091555050565b600381815481106103f157600080fd5b6000918252602090912001546001600160a01b0316905081565b600060078260ff1681548110610423576104236105da565b600091825260209091206001600290920201015460ff1692915050565b6000546001600160a01b0316331461046b576040516301fc6cb760e31b815260040160405180910390fd5b60005b60035481101561053a576003818154811061048b5761048b6105da565b6000918252602082200154600380546001600160a01b0390921692600492909190859081106104bc576104bc6105da565b6000918252602080832091909101546001600160a01b0316835282019290925260409081018220549051909181818185875af1925050503d806000811461051f576040519150601f19603f3d011682016040523d82523d6000602084013e610524565b606091505b50505080806105329061063e565b91505061046e565b50565b6007818154811061054d57600080fd5b60009182526020909120600290910201805460019091015490915060ff1682565b60006020828403121561058057600080fd5b5035919050565b60006020828403121561059957600080fd5b813560ff811681146105aa57600080fd5b9392505050565b6000602082840312156105c357600080fd5b81356001600160a01b03811681146105aa57600080fd5b634e487b7160e01b600052603260045260246000fd5b634e487b7160e01b600052601160045260246000fd5b600060ff821660ff810361061c5761061c6105f0565b60010192915050565b80820180821115610638576106386105f0565b92915050565b600060018201610650576106506105f0565b506001019056fea2646970667358221220371fab1bf76c21bafdd8e3329d3e5983a14b2a65cc1318c6c71e2f75c3ffea8564736f6c63430008120033","linkReferences":{}},"methodIdentifiers":{"balance()":"b69ef8a8","donate()":"ed88c68e","donationHistory(address)":"91f2b0ad","donors(uint256)":"4abfa163","finalMilestone()":"a89e82bf","getGoalAchieved(uint8)":"587585a4","milestones(uint256)":"e89e4ed6","owner()":"8da5cb5b","refund()":"590e1ae3"},"id":21}